{
  "_format": "hh-sol-artifact-1",
  "contractName": "Module",
  "sourceName": "contracts/Module.sol",
  "abi": [
    {
      "inputs": [
        {
          "internalType": "address",
          "name": "_owner",
          "type": "address"
        }
      ],
      "stateMutability": "nonpayable",
      "type": "constructor"
    },
    {
      "inputs": [],
      "name": "contractOwner",
      "outputs": [
        {
          "internalType": "address",
          "name": "",
          "type": "address"
        }
      ],
      "stateMutability": "view",
      "type": "function"
    },
    {
      "inputs": [
        {
          "internalType": "address",
          "name": "_tenant",
          "type": "address"
        }
      ],
      "name": "init",
      "outputs": [],
      "stateMutability": "nonpayable",
      "type": "function"
    },
    {
      "inputs": [],
      "name": "metadata",
      "outputs": [
        {
          "internalType": "bytes",
          "name": "title",
          "type": "bytes"
        },
        {
          "components": [
            {
              "internalType": "address",
              "name": "authorAddress",
              "type": "address"
            },
            {
              "internalType": "string",
              "name": "externalLink",
              "type": "string"
            }
          ],
          "internalType": "struct IHyperverseModule.Author",
          "name": "author",
          "type": "tuple"
        },
        {
          "internalType": "bytes",
          "name": "version",
          "type": "bytes"
        },
        {
          "internalType": "uint64",
          "name": "publishedAt",
          "type": "uint64"
        },
        {
          "internalType": "bytes",
          "name": "externalLink",
          "type": "bytes"
        }
      ],
      "stateMutability": "view",
      "type": "function"
    }
  ],
  "bytecode": "0x60a06040523480156200001157600080fd5b5060405162000be138038062000be1833981810160405281019062000037919062000403565b6040518060a001604052806040518060400160405280600681526020017f4d6f64756c650000000000000000000000000000000000000000000000000000815250815260200160405180604001604052808473ffffffffffffffffffffffffffffffffffffffff1681526020016040518060400160405280601881526020017f68747470733a2f2f65787465726e616c6c696e6b2e6e6574000000000000000081525081525081526020016040518060400160405280600581526020017f312e302e30000000000000000000000000000000000000000000000000000000815250815260200165032a361e860667ffffffffffffffff1681526020016040518060400160405280601881526020017f68747470733a2f2f65787465726e616c6c696e6b2e6e657400000000000000008152508152506000808201518160000190805190602001906200018b929190620002ab565b5060208201518160010160008201518160000160006101000a81548173ffffffffffffffffffffffffffffffffffffffff021916908373ffffffffffffffffffffffffffffffffffffffff1602179055506020820151816001019080519060200190620001fa9291906200033c565b50505060408201518160030190805190602001906200021b929190620002ab565b5060608201518160040160006101000a81548167ffffffffffffffff021916908367ffffffffffffffff160217905550608082015181600501908051906020019062000269929190620002ab565b509050508073ffffffffffffffffffffffffffffffffffffffff1660808173ffffffffffffffffffffffffffffffffffffffff1660601b8152505050620004e2565b828054620002b99062000463565b90600052602060002090601f016020900481019282620002dd576000855562000329565b82601f10620002f857805160ff191683800117855562000329565b8280016001018555821562000329579182015b82811115620003285782518255916020019190600101906200030b565b5b509050620003389190620003cd565b5090565b8280546200034a9062000463565b90600052602060002090601f0160209004810192826200036e5760008555620003ba565b82601f106200038957805160ff1916838001178555620003ba565b82800160010185558215620003ba579182015b82811115620003b95782518255916020019190600101906200039c565b5b509050620003c99190620003cd565b5090565b5b80821115620003e8576000816000905550600101620003ce565b5090565b600081519050620003fd81620004c8565b92915050565b6000602082840312156200041657600080fd5b60006200042684828501620003ec565b91505092915050565b60006200043c8262000443565b9050919050565b600073ffffffffffffffffffffffffffffffffffffffff82169050919050565b600060028204905060018216806200047c57607f821691505b6020821081141562000493576200049262000499565b5b50919050565b7f4e487b7100000000000000000000000000000000000000000000000000000000600052602260045260246000fd5b620004d3816200042f565b8114620004df57600080fd5b50565b60805160601c6106e06200050160003960006103aa01526106e06000f3fe608060405234801561001057600080fd5b50600436106100415760003560e01c806319ab453c14610046578063392f37e914610062578063ce606ee014610084575b600080fd5b610060600480360381019061005b91906103e1565b6100a2565b005b61006a6100e6565b60405161007b959493929190610501565b60405180910390f35b61008c6103a8565b60405161009991906104e6565b60405180910390f35b80600760006101000a81548173ffffffffffffffffffffffffffffffffffffffff021916908373ffffffffffffffffffffffffffffffffffffffff16021790555050565b60008060000180546100f790610621565b80601f016020809104026020016040519081016040528092919081815260200182805461012390610621565b80156101705780601f1061014557610100808354040283529160200191610170565b820191906000526020600020905b81548152906001019060200180831161015357829003601f168201915b505050505090806001016040518060400160405290816000820160009054906101000a900473ffffffffffffffffffffffffffffffffffffffff1673ffffffffffffffffffffffffffffffffffffffff1673ffffffffffffffffffffffffffffffffffffffff1681526020016001820180546101eb90610621565b80601f016020809104026020016040519081016040528092919081815260200182805461021790610621565b80156102645780601f1061023957610100808354040283529160200191610264565b820191906000526020600020905b81548152906001019060200180831161024757829003601f168201915b5050505050815250509080600301805461027d90610621565b80601f01602080910402602001604051908101604052809291908181526020018280546102a990610621565b80156102f65780601f106102cb576101008083540402835291602001916102f6565b820191906000526020600020905b8154815290600101906020018083116102d957829003601f168201915b5050505050908060040160009054906101000a900467ffffffffffffffff169080600501805461032590610621565b80601f016020809104026020016040519081016040528092919081815260200182805461035190610621565b801561039e5780601f106103735761010080835404028352916020019161039e565b820191906000526020600020905b81548152906001019060200180831161038157829003601f168201915b5050505050905085565b7f000000000000000000000000000000000000000000000000000000000000000081565b6000813590506103db81610693565b92915050565b6000602082840312156103f357600080fd5b6000610401848285016103cc565b91505092915050565b610413816105a8565b82525050565b610422816105a8565b82525050565b600061043382610570565b61043d8185610586565b935061044d8185602086016105ee565b61045681610682565b840191505092915050565b600061046c8261057b565b6104768185610597565b93506104868185602086016105ee565b61048f81610682565b840191505092915050565b60006040830160008301516104b2600086018261040a565b50602083015184820360208601526104ca8282610461565b9150508091505092915050565b6104e0816105da565b82525050565b60006020820190506104fb6000830184610419565b92915050565b600060a082019050818103600083015261051b8188610428565b9050818103602083015261052f818761049a565b905081810360408301526105438186610428565b905061055260608301856104d7565b81810360808301526105648184610428565b90509695505050505050565b600081519050919050565b600081519050919050565b600082825260208201905092915050565b600082825260208201905092915050565b60006105b3826105ba565b9050919050565b600073ffffffffffffffffffffffffffffffffffffffff82169050919050565b600067ffffffffffffffff82169050919050565b60005b8381101561060c5780820151818401526020810190506105f1565b8381111561061b576000848401525b50505050565b6000600282049050600182168061063957607f821691505b6020821081141561064d5761064c610653565b5b50919050565b7f4e487b7100000000000000000000000000000000000000000000000000000000600052602260045260246000fd5b6000601f19601f8301169050919050565b61069c816105a8565b81146106a757600080fd5b5056fea264697066735822122055b59ab330061314cea76ba1b966621fbc2adc0105583b50ce515883683cfe5d64736f6c63430008040033",
  "linkReferences": {},
  "deployedLinkReferences": {}
}