{
  "_format": "hh-sol-artifact-1",
  "contractName": "Module",
  "sourceName": "contracts/Module.sol",
  "abi": [
    {
      "inputs": [
        {
          "internalType": "address",
          "name": "_owner",
          "type": "address"
        }
      ],
      "stateMutability": "nonpayable",
      "type": "constructor"
    },
    {
      "inputs": [],
      "name": "AlreadyInitialized",
      "type": "error"
    },
    {
      "inputs": [],
      "name": "SameAddress",
      "type": "error"
    },
    {
      "inputs": [],
      "name": "Unauthorized",
      "type": "error"
    },
    {
      "inputs": [],
      "name": "ZeroAddress",
      "type": "error"
    },
    {
      "anonymous": false,
      "inputs": [
        {
          "indexed": false,
          "internalType": "uint8",
          "name": "version",
          "type": "uint8"
        }
      ],
      "name": "Initialized",
      "type": "event"
    },
    {
      "inputs": [],
      "name": "contractOwner",
      "outputs": [
        {
          "internalType": "address",
          "name": "",
          "type": "address"
        }
      ],
      "stateMutability": "view",
      "type": "function"
    },
    {
      "inputs": [
        {
          "internalType": "address",
          "name": "_tenant",
          "type": "address"
        }
      ],
      "name": "initialize",
      "outputs": [],
      "stateMutability": "nonpayable",
      "type": "function"
    },
    {
      "inputs": [],
      "name": "metadata",
      "outputs": [
        {
          "internalType": "bytes",
          "name": "title",
          "type": "bytes"
        },
        {
          "components": [
            {
              "internalType": "address",
              "name": "authorAddress",
              "type": "address"
            },
            {
              "internalType": "string",
              "name": "externalLink",
              "type": "string"
            }
          ],
          "internalType": "struct IHyperverseModule.Author",
          "name": "author",
          "type": "tuple"
        },
        {
          "internalType": "bytes",
          "name": "version",
          "type": "bytes"
        },
        {
          "internalType": "uint64",
          "name": "publishedAt",
          "type": "uint64"
        },
        {
          "internalType": "bytes",
          "name": "externalLink",
          "type": "bytes"
        }
      ],
      "stateMutability": "view",
      "type": "function"
    }
  ],
  "bytecode": "0x60a06040523480156200001157600080fd5b5060405162000ee938038062000ee9833981810160405281019062000037919062000403565b6040518060a001604052806040518060400160405280600b81526020017f4d6f64756c65204e616d65000000000000000000000000000000000000000000815250815260200160405180604001604052808473ffffffffffffffffffffffffffffffffffffffff1681526020016040518060400160405280601881526020017f68747470733a2f2f65787465726e616c6c696e6b2e6e6574000000000000000081525081525081526020016040518060400160405280600581526020017f302e302e31000000000000000000000000000000000000000000000000000000815250815260200165032a361e860667ffffffffffffffff1681526020016040518060400160405280601881526020017f68747470733a2f2f65787465726e616c4c696e6b2e6e657400000000000000008152508152506000808201518160000190805190602001906200018b929190620002ab565b5060208201518160010160008201518160000160006101000a81548173ffffffffffffffffffffffffffffffffffffffff021916908373ffffffffffffffffffffffffffffffffffffffff1602179055506020820151816001019080519060200190620001fa9291906200033c565b50505060408201518160030190805190602001906200021b929190620002ab565b5060608201518160040160006101000a81548167ffffffffffffffff021916908367ffffffffffffffff160217905550608082015181600501908051906020019062000269929190620002ab565b509050508073ffffffffffffffffffffffffffffffffffffffff1660808173ffffffffffffffffffffffffffffffffffffffff1660601b8152505050620004e2565b828054620002b99062000463565b90600052602060002090601f016020900481019282620002dd576000855562000329565b82601f10620002f857805160ff191683800117855562000329565b8280016001018555821562000329579182015b82811115620003285782518255916020019190600101906200030b565b5b509050620003389190620003cd565b5090565b8280546200034a9062000463565b90600052602060002090601f0160209004810192826200036e5760008555620003ba565b82601f106200038957805160ff1916838001178555620003ba565b82800160010185558215620003ba579182015b82811115620003b95782518255916020019190600101906200039c565b5b509050620003c99190620003cd565b5090565b5b80821115620003e8576000816000905550600101620003ce565b5090565b600081519050620003fd81620004c8565b92915050565b6000602082840312156200041657600080fd5b60006200042684828501620003ec565b91505092915050565b60006200043c8262000443565b9050919050565b600073ffffffffffffffffffffffffffffffffffffffff82169050919050565b600060028204905060018216806200047c57607f821691505b6020821081141562000493576200049262000499565b5b50919050565b7f4e487b7100000000000000000000000000000000000000000000000000000000600052602260045260246000fd5b620004d3816200042f565b8114620004df57600080fd5b50565b60805160601c6109e86200050160003960006104bf01526109e86000f3fe608060405234801561001057600080fd5b50600436106100415760003560e01c8063392f37e914610046578063c4d66de814610068578063ce606ee014610084575b600080fd5b61004e6100a2565b60405161005f95949392919061074f565b60405180910390f35b610082600480360381019061007d91906105fd565b610364565b005b61008c6104bd565b6040516100999190610734565b60405180910390f35b60008060000180546100b3906108da565b80601f01602080910402602001604051908101604052809291908181526020018280546100df906108da565b801561012c5780601f106101015761010080835404028352916020019161012c565b820191906000526020600020905b81548152906001019060200180831161010f57829003601f168201915b505050505090806001016040518060400160405290816000820160009054906101000a900473ffffffffffffffffffffffffffffffffffffffff1673ffffffffffffffffffffffffffffffffffffffff1673ffffffffffffffffffffffffffffffffffffffff1681526020016001820180546101a7906108da565b80601f01602080910402602001604051908101604052809291908181526020018280546101d3906108da565b80156102205780601f106101f557610100808354040283529160200191610220565b820191906000526020600020905b81548152906001019060200180831161020357829003601f168201915b50505050508152505090806003018054610239906108da565b80601f0160208091040260200160405190810160405280929190818152602001828054610265906108da565b80156102b25780601f10610287576101008083540402835291602001916102b2565b820191906000526020600020905b81548152906001019060200180831161029557829003601f168201915b5050505050908060040160009054906101000a900467ffffffffffffffff16908060050180546102e1906108da565b80601f016020809104026020016040519081016040528092919081815260200182805461030d906108da565b801561035a5780601f1061032f5761010080835404028352916020019161035a565b820191906000526020600020905b81548152906001019060200180831161033d57829003601f168201915b5050505050905085565b600061037060016104e1565b90508015610394576001600660156101000a81548160ff0219169083151502179055505b81600073ffffffffffffffffffffffffffffffffffffffff16600760009054906101000a900473ffffffffffffffffffffffffffffffffffffffff1673ffffffffffffffffffffffffffffffffffffffff161461041d576040517f0dc149f000000000000000000000000000000000000000000000000000000000815260040160405180910390fd5b82600760006101000a81548173ffffffffffffffffffffffffffffffffffffffff021916908373ffffffffffffffffffffffffffffffffffffffff1602179055505080156104b9576000600660156101000a81548160ff0219169083151502179055507f7f26b83ff96e1f2b6a682f133852f6798a09c465da95921460cefb384740249860016040516104b091906107be565b60405180910390a15b5050565b7f000000000000000000000000000000000000000000000000000000000000000081565b6000600660159054906101000a900460ff16156105595760018260ff16148015610511575061050f306105d5565b155b610550576040517f08c379a0000000000000000000000000000000000000000000000000000000008152600401610547906107d9565b60405180910390fd5b600090506105d0565b8160ff16600660149054906101000a900460ff1660ff16106105b0576040517f08c379a00000000000000000000000000000000000000000000000000000000081526004016105a7906107d9565b60405180910390fd5b81600660146101000a81548160ff021916908360ff160217905550600190505b919050565b600080823b905060008111915050919050565b6000813590506105f78161099b565b92915050565b60006020828403121561060f57600080fd5b600061061d848285016105e8565b91505092915050565b61062f81610842565b82525050565b61063e81610842565b82525050565b600061064f826107f9565b610659818561080f565b93506106698185602086016108a7565b6106728161093b565b840191505092915050565b61068681610895565b82525050565b600061069782610804565b6106a18185610820565b93506106b18185602086016108a7565b6106ba8161093b565b840191505092915050565b60006106d2602e83610831565b91506106dd8261094c565b604082019050919050565b60006040830160008301516107006000860182610626565b5060208301518482036020860152610718828261068c565b9150508091505092915050565b61072e81610874565b82525050565b60006020820190506107496000830184610635565b92915050565b600060a08201905081810360008301526107698188610644565b9050818103602083015261077d81876106e8565b905081810360408301526107918186610644565b90506107a06060830185610725565b81810360808301526107b28184610644565b90509695505050505050565b60006020820190506107d3600083018461067d565b92915050565b600060208201905081810360008301526107f2816106c5565b9050919050565b600081519050919050565b600081519050919050565b600082825260208201905092915050565b600082825260208201905092915050565b600082825260208201905092915050565b600061084d82610854565b9050919050565b600073ffffffffffffffffffffffffffffffffffffffff82169050919050565b600067ffffffffffffffff82169050919050565b600060ff82169050919050565b60006108a082610888565b9050919050565b60005b838110156108c55780820151818401526020810190506108aa565b838111156108d4576000848401525b50505050565b600060028204905060018216806108f257607f821691505b602082108114156109065761090561090c565b5b50919050565b7f4e487b7100000000000000000000000000000000000000000000000000000000600052602260045260246000fd5b6000601f19601f8301169050919050565b7f496e697469616c697a61626c653a20636f6e747261637420697320616c72656160008201527f647920696e697469616c697a6564000000000000000000000000000000000000602082015250565b6109a481610842565b81146109af57600080fd5b5056fea2646970667358221220fc3433bb37dc542397535937502ad29a9415263f55b3579562e2696831701ec664736f6c63430008040033",
  "linkReferences": {},
  "deployedLinkReferences": {}
}