{
  "_format": "hh-sol-artifact-1",
  "contractName": "MERC721",
  "sourceName": "contracts/MERC721.sol",
  "abi": [
    {
      "inputs": [],
      "stateMutability": "nonpayable",
      "type": "constructor"
    },
    {
      "inputs": [],
      "name": "AlreadyInitialized",
      "type": "error"
    },
    {
      "inputs": [],
      "name": "InvalidERC721Receiver",
      "type": "error"
    },
    {
      "inputs": [],
      "name": "NonexistentToken",
      "type": "error"
    },
    {
      "inputs": [],
      "name": "SameAddress",
      "type": "error"
    },
    {
      "inputs": [],
      "name": "TokenAlreadyMinted",
      "type": "error"
    },
    {
      "inputs": [],
      "name": "TokenNotOwnedBySender",
      "type": "error"
    },
    {
      "inputs": [],
      "name": "Unauthorized",
      "type": "error"
    },
    {
      "inputs": [],
      "name": "ZeroAddress",
      "type": "error"
    },
    {
      "anonymous": false,
      "inputs": [
        {
          "indexed": true,
          "internalType": "address",
          "name": "owner",
          "type": "address"
        },
        {
          "indexed": true,
          "internalType": "address",
          "name": "approved",
          "type": "address"
        },
        {
          "indexed": true,
          "internalType": "uint256",
          "name": "tokenId",
          "type": "uint256"
        }
      ],
      "name": "Approval",
      "type": "event"
    },
    {
      "anonymous": false,
      "inputs": [
        {
          "indexed": true,
          "internalType": "address",
          "name": "owner",
          "type": "address"
        },
        {
          "indexed": true,
          "internalType": "address",
          "name": "operator",
          "type": "address"
        },
        {
          "indexed": false,
          "internalType": "bool",
          "name": "approved",
          "type": "bool"
        }
      ],
      "name": "ApprovalForAll",
      "type": "event"
    },
    {
      "anonymous": false,
      "inputs": [
        {
          "indexed": true,
          "internalType": "address",
          "name": "from",
          "type": "address"
        },
        {
          "indexed": true,
          "internalType": "address",
          "name": "to",
          "type": "address"
        },
        {
          "indexed": true,
          "internalType": "uint256",
          "name": "tokenId",
          "type": "uint256"
        }
      ],
      "name": "Transfer",
      "type": "event"
    },
    {
      "inputs": [
        {
          "internalType": "address",
          "name": "_to",
          "type": "address"
        },
        {
          "internalType": "uint256",
          "name": "_tokenId",
          "type": "uint256"
        }
      ],
      "name": "approve",
      "outputs": [],
      "stateMutability": "nonpayable",
      "type": "function"
    },
    {
      "inputs": [
        {
          "internalType": "address",
          "name": "_owner",
          "type": "address"
        }
      ],
      "name": "balanceOf",
      "outputs": [
        {
          "internalType": "uint256",
          "name": "",
          "type": "uint256"
        }
      ],
      "stateMutability": "view",
      "type": "function"
    },
    {
      "inputs": [
        {
          "internalType": "uint256",
          "name": "_tokenId",
          "type": "uint256"
        }
      ],
      "name": "getApproved",
      "outputs": [
        {
          "internalType": "address",
          "name": "",
          "type": "address"
        }
      ],
      "stateMutability": "view",
      "type": "function"
    },
    {
      "inputs": [],
      "name": "initialized",
      "outputs": [
        {
          "internalType": "bool",
          "name": "",
          "type": "bool"
        }
      ],
      "stateMutability": "view",
      "type": "function"
    },
    {
      "inputs": [
        {
          "internalType": "address",
          "name": "_owner",
          "type": "address"
        },
        {
          "internalType": "address",
          "name": "_operator",
          "type": "address"
        }
      ],
      "name": "isApprovedForAll",
      "outputs": [
        {
          "internalType": "bool",
          "name": "",
          "type": "bool"
        }
      ],
      "stateMutability": "view",
      "type": "function"
    },
    {
      "inputs": [],
      "name": "name",
      "outputs": [
        {
          "internalType": "string",
          "name": "",
          "type": "string"
        }
      ],
      "stateMutability": "view",
      "type": "function"
    },
    {
      "inputs": [
        {
          "internalType": "uint256",
          "name": "_tokenId",
          "type": "uint256"
        }
      ],
      "name": "ownerOf",
      "outputs": [
        {
          "internalType": "address",
          "name": "",
          "type": "address"
        }
      ],
      "stateMutability": "view",
      "type": "function"
    },
    {
      "inputs": [
        {
          "internalType": "address",
          "name": "_from",
          "type": "address"
        },
        {
          "internalType": "address",
          "name": "_to",
          "type": "address"
        },
        {
          "internalType": "uint256",
          "name": "_tokenId",
          "type": "uint256"
        }
      ],
      "name": "safeTransferFrom",
      "outputs": [],
      "stateMutability": "nonpayable",
      "type": "function"
    },
    {
      "inputs": [
        {
          "internalType": "address",
          "name": "_from",
          "type": "address"
        },
        {
          "internalType": "address",
          "name": "_to",
          "type": "address"
        },
        {
          "internalType": "uint256",
          "name": "_tokenId",
          "type": "uint256"
        },
        {
          "internalType": "bytes",
          "name": "_data",
          "type": "bytes"
        }
      ],
      "name": "safeTransferFrom",
      "outputs": [],
      "stateMutability": "nonpayable",
      "type": "function"
    },
    {
      "inputs": [
        {
          "internalType": "address",
          "name": "_operator",
          "type": "address"
        },
        {
          "internalType": "bool",
          "name": "_approved",
          "type": "bool"
        }
      ],
      "name": "setApprovalForAll",
      "outputs": [],
      "stateMutability": "nonpayable",
      "type": "function"
    },
    {
      "inputs": [
        {
          "internalType": "bytes4",
          "name": "_interfaceId",
          "type": "bytes4"
        }
      ],
      "name": "supportsInterface",
      "outputs": [
        {
          "internalType": "bool",
          "name": "",
          "type": "bool"
        }
      ],
      "stateMutability": "view",
      "type": "function"
    },
    {
      "inputs": [],
      "name": "symbol",
      "outputs": [
        {
          "internalType": "string",
          "name": "",
          "type": "string"
        }
      ],
      "stateMutability": "view",
      "type": "function"
    },
    {
      "inputs": [
        {
          "internalType": "uint256",
          "name": "_tokenId",
          "type": "uint256"
        }
      ],
      "name": "tokenURI",
      "outputs": [
        {
          "internalType": "string",
          "name": "",
          "type": "string"
        }
      ],
      "stateMutability": "view",
      "type": "function"
    },
    {
      "inputs": [
        {
          "internalType": "address",
          "name": "_from",
          "type": "address"
        },
        {
          "internalType": "address",
          "name": "_to",
          "type": "address"
        },
        {
          "internalType": "uint256",
          "name": "_tokenId",
          "type": "uint256"
        }
      ],
      "name": "transferFrom",
      "outputs": [],
      "stateMutability": "nonpayable",
      "type": "function"
    }
  ],
  "bytecode": "0x608060405234801561001057600080fd5b50611e42806100206000396000f3fe608060405234801561001057600080fd5b50600436106100ea5760003560e01c80636352211e1161008c578063a22cb46511610066578063a22cb4651461025d578063b88d4fde14610279578063c87b56dd14610295578063e985e9c5146102c5576100ea565b80636352211e146101df57806370a082311461020f57806395d89b411461023f576100ea565b8063095ea7b3116100c8578063095ea7b31461016d578063158ef93e1461018957806323b872dd146101a757806342842e0e146101c3576100ea565b806301ffc9a7146100ef57806306fdde031461011f578063081812fc1461013d575b600080fd5b6101096004803603810190610104919061173c565b6102f5565b6040516101169190611935565b60405180910390f35b6101276103d7565b6040516101349190611950565b60405180910390f35b6101576004803603810190610152919061178e565b610465565b60405161016491906118ce565b60405180910390f35b61018760048036038101906101829190611700565b6104e3565b005b610191610687565b60405161019e9190611935565b60405180910390f35b6101c160048036038101906101bc91906115fa565b61069a565b005b6101dd60048036038101906101d891906115fa565b6106f1565b005b6101f960048036038101906101f4919061178e565b610711565b60405161020691906118ce565b60405180910390f35b61022960048036038101906102249190611595565b61078f565b6040516102369190611992565b60405180910390f35b6102476108a8565b6040516102549190611950565b60405180910390f35b610277600480360381019061027291906116c4565b610936565b005b610293600480360381019061028e9190611649565b61094c565b005b6102af60048036038101906102aa919061178e565b6109a5565b6040516102bc9190611950565b60405180910390f35b6102df60048036038101906102da91906115be565b610a45565b6040516102ec9190611935565b60405180910390f35b60007f80ac58cd000000000000000000000000000000000000000000000000000000007bffffffffffffffffffffffffffffffffffffffffffffffffffffffff1916827bffffffffffffffffffffffffffffffffffffffffffffffffffffffff191614806103c057507f5b5e139f000000000000000000000000000000000000000000000000000000007bffffffffffffffffffffffffffffffffffffffffffffffffffffffff1916827bffffffffffffffffffffffffffffffffffffffffffffffffffffffff1916145b806103d057506103cf82610ad9565b5b9050919050565b600080546103e490611bb7565b80601f016020809104026020016040519081016040528092919081815260200182805461041090611bb7565b801561045d5780601f106104325761010080835404028352916020019161045d565b820191906000526020600020905b81548152906001019060200180831161044057829003601f168201915b505050505081565b60008161047181610b43565b6104a7576040517fb1d04f0800000000000000000000000000000000000000000000000000000000815260040160405180910390fd5b6005600084815260200190815260200160002060009054906101000a900473ffffffffffffffffffffffffffffffffffffffff16915050919050565b60006104ee82610711565b90508073ffffffffffffffffffffffffffffffffffffffff168373ffffffffffffffffffffffffffffffffffffffff16141561055f576040517f08c379a000000000000000000000000000000000000000000000000000000000815260040161055690611972565b60405180910390fd5b8073ffffffffffffffffffffffffffffffffffffffff168373ffffffffffffffffffffffffffffffffffffffff1614156105c5576040517f367558c300000000000000000000000000000000000000000000000000000000815260040160405180910390fd5b8073ffffffffffffffffffffffffffffffffffffffff166105e4610baf565b73ffffffffffffffffffffffffffffffffffffffff1614610631576040517f82b4290000000000000000000000000000000000000000000000000000000000815260040160405180910390fd5b6106428161063d610baf565b610a45565b610678576040517f82b4290000000000000000000000000000000000000000000000000000000000815260040160405180910390fd5b6106828383610bb7565b505050565b600260009054906101000a900460ff1681565b6106ab6106a5610baf565b82610c70565b6106e1576040517f82b4290000000000000000000000000000000000000000000000000000000000815260040160405180910390fd5b6106ec838383610d47565b505050565b61070c8383836040518060200160405280600081525061094c565b505050565b60008161071d81610b43565b610753576040517fb1d04f0800000000000000000000000000000000000000000000000000000000815260040160405180910390fd5b6003600084815260200190815260200160002060009054906101000a900473ffffffffffffffffffffffffffffffffffffffff16915050919050565b600081600073ffffffffffffffffffffffffffffffffffffffff168173ffffffffffffffffffffffffffffffffffffffff1614156107f9576040517fd92e233d00000000000000000000000000000000000000000000000000000000815260040160405180910390fd5b600073ffffffffffffffffffffffffffffffffffffffff168373ffffffffffffffffffffffffffffffffffffffff161415610860576040517fd92e233d00000000000000000000000000000000000000000000000000000000815260040160405180910390fd5b600460008473ffffffffffffffffffffffffffffffffffffffff1673ffffffffffffffffffffffffffffffffffffffff16815260200190815260200160002054915050919050565b600180546108b590611bb7565b80601f01602080910402602001604051908101604052809291908181526020018280546108e190611bb7565b801561092e5780601f106109035761010080835404028352916020019161092e565b820191906000526020600020905b81548152906001019060200180831161091157829003601f168201915b505050505081565b610948610941610baf565b8383610f9e565b5050565b61095d610957610baf565b83610c70565b610993576040517f82b4290000000000000000000000000000000000000000000000000000000000815260040160405180910390fd5b61099f84848484611102565b50505050565b6060816109b181610b43565b6109e7576040517fb1d04f0800000000000000000000000000000000000000000000000000000000815260040160405180910390fd5b60006109f1611155565b90506000815111610a115760405180602001604052806000815250610a3c565b80610a1b8561116c565b604051602001610a2c9291906118aa565b6040516020818303038152906040525b92505050919050565b6000600660008473ffffffffffffffffffffffffffffffffffffffff1673ffffffffffffffffffffffffffffffffffffffff16815260200190815260200160002060008373ffffffffffffffffffffffffffffffffffffffff1673ffffffffffffffffffffffffffffffffffffffff16815260200190815260200160002060009054906101000a900460ff16905092915050565b60007f01ffc9a7000000000000000000000000000000000000000000000000000000007bffffffffffffffffffffffffffffffffffffffffffffffffffffffff1916827bffffffffffffffffffffffffffffffffffffffffffffffffffffffff1916149050919050565b60008073ffffffffffffffffffffffffffffffffffffffff166003600084815260200190815260200160002060009054906101000a900473ffffffffffffffffffffffffffffffffffffffff1673ffffffffffffffffffffffffffffffffffffffff1614159050919050565b600033905090565b816005600083815260200190815260200160002060006101000a81548173ffffffffffffffffffffffffffffffffffffffff021916908373ffffffffffffffffffffffffffffffffffffffff160217905550808273ffffffffffffffffffffffffffffffffffffffff16610c2a83610711565b73ffffffffffffffffffffffffffffffffffffffff167f8c5be1e5ebec7d5bd14f71427d1e84f3dd0314c0f7b2291e5b200ac8c7c3b92560405160405180910390a45050565b600081610c7c81610b43565b610cb2576040517fb1d04f0800000000000000000000000000000000000000000000000000000000815260040160405180910390fd5b6000610cbd84610711565b90508073ffffffffffffffffffffffffffffffffffffffff168573ffffffffffffffffffffffffffffffffffffffff161480610d2c57508473ffffffffffffffffffffffffffffffffffffffff16610d1485610465565b73ffffffffffffffffffffffffffffffffffffffff16145b80610d3d5750610d3c8186610a45565b5b9250505092915050565b81600073ffffffffffffffffffffffffffffffffffffffff168173ffffffffffffffffffffffffffffffffffffffff161415610daf576040517fd92e233d00000000000000000000000000000000000000000000000000000000815260040160405180910390fd5b8373ffffffffffffffffffffffffffffffffffffffff16610dcf83610711565b73ffffffffffffffffffffffffffffffffffffffff1614610e1c576040517f736a9ea700000000000000000000000000000000000000000000000000000000815260040160405180910390fd5b610e27848484611319565b610e32600083610bb7565b6001600460008673ffffffffffffffffffffffffffffffffffffffff1673ffffffffffffffffffffffffffffffffffffffff1681526020019081526020016000206000828254610e829190611acd565b925050819055506001600460008573ffffffffffffffffffffffffffffffffffffffff1673ffffffffffffffffffffffffffffffffffffffff1681526020019081526020016000206000828254610ed99190611a46565b92505081905550826003600084815260200190815260200160002060006101000a81548173ffffffffffffffffffffffffffffffffffffffff021916908373ffffffffffffffffffffffffffffffffffffffff160217905550818373ffffffffffffffffffffffffffffffffffffffff168573ffffffffffffffffffffffffffffffffffffffff167fddf252ad1be2c89b69c2b068fc378daa952ba7f163c4a11628f55a4df523b3ef60405160405180910390a4610f9884848461131e565b50505050565b8173ffffffffffffffffffffffffffffffffffffffff168373ffffffffffffffffffffffffffffffffffffffff161415611004576040517f367558c300000000000000000000000000000000000000000000000000000000815260040160405180910390fd5b80600660008573ffffffffffffffffffffffffffffffffffffffff1673ffffffffffffffffffffffffffffffffffffffff16815260200190815260200160002060008473ffffffffffffffffffffffffffffffffffffffff1673ffffffffffffffffffffffffffffffffffffffff16815260200190815260200160002060006101000a81548160ff0219169083151502179055508173ffffffffffffffffffffffffffffffffffffffff168373ffffffffffffffffffffffffffffffffffffffff167f17307eab39ab6107e8899845ad3d59bd9653f200f220920489ca2b5937696c31836040516110f59190611935565b60405180910390a3505050565b61110d848484610d47565b61111984848484611323565b61114f576040517fb5bbd22f00000000000000000000000000000000000000000000000000000000815260040160405180910390fd5b50505050565b606060405180602001604052806000815250905090565b606060008214156111b4576040518060400160405280600181526020017f30000000000000000000000000000000000000000000000000000000000000008152509050611314565b600082905060005b600082146111e65780806111cf90611c1a565b915050600a826111df9190611a9c565b91506111bc565b60008167ffffffffffffffff811115611228577f4e487b7100000000000000000000000000000000000000000000000000000000600052604160045260246000fd5b6040519080825280601f01601f19166020018201604052801561125a5781602001600182028036833780820191505090505b5090505b6000851461130d576001826112739190611acd565b9150600a856112829190611c63565b603061128e9190611a46565b60f81b8183815181106112ca577f4e487b7100000000000000000000000000000000000000000000000000000000600052603260045260246000fd5b60200101907effffffffffffffffffffffffffffffffffffffffffffffffffffffffffffff1916908160001a905350600a856113069190611a9c565b945061125e565b8093505050505b919050565b505050565b505050565b60006113448473ffffffffffffffffffffffffffffffffffffffff166114b1565b156114a4578373ffffffffffffffffffffffffffffffffffffffff1663150b7a0261136d610baf565b8786866040518563ffffffff1660e01b815260040161138f94939291906118e9565b602060405180830381600087803b1580156113a957600080fd5b505af19250505080156113da57506040513d601f19601f820116820180604052508101906113d79190611765565b60015b611454573d806000811461140a576040519150601f19603f3d011682016040523d82523d6000602084013e61140f565b606091505b5060008151141561144c576040517fb5bbd22f00000000000000000000000000000000000000000000000000000000815260040160405180910390fd5b805181602001fd5b63150b7a0260e01b7bffffffffffffffffffffffffffffffffffffffffffffffffffffffff1916817bffffffffffffffffffffffffffffffffffffffffffffffffffffffff1916149150506114a9565b600190505b949350505050565b600080823b905060008111915050919050565b60006114d76114d2846119d2565b6119ad565b9050828152602081018484840111156114ef57600080fd5b6114fa848285611b75565b509392505050565b60008135905061151181611db0565b92915050565b60008135905061152681611dc7565b92915050565b60008135905061153b81611dde565b92915050565b60008151905061155081611dde565b92915050565b600082601f83011261156757600080fd5b81356115778482602086016114c4565b91505092915050565b60008135905061158f81611df5565b92915050565b6000602082840312156115a757600080fd5b60006115b584828501611502565b91505092915050565b600080604083850312156115d157600080fd5b60006115df85828601611502565b92505060206115f085828601611502565b9150509250929050565b60008060006060848603121561160f57600080fd5b600061161d86828701611502565b935050602061162e86828701611502565b925050604061163f86828701611580565b9150509250925092565b6000806000806080858703121561165f57600080fd5b600061166d87828801611502565b945050602061167e87828801611502565b935050604061168f87828801611580565b925050606085013567ffffffffffffffff8111156116ac57600080fd5b6116b887828801611556565b91505092959194509250565b600080604083850312156116d757600080fd5b60006116e585828601611502565b92505060206116f685828601611517565b9150509250929050565b6000806040838503121561171357600080fd5b600061172185828601611502565b925050602061173285828601611580565b9150509250929050565b60006020828403121561174e57600080fd5b600061175c8482850161152c565b91505092915050565b60006020828403121561177757600080fd5b600061178584828501611541565b91505092915050565b6000602082840312156117a057600080fd5b60006117ae84828501611580565b91505092915050565b6117c081611b01565b82525050565b6117cf81611b13565b82525050565b60006117e082611a03565b6117ea8185611a19565b93506117fa818560208601611b84565b61180381611d50565b840191505092915050565b600061181982611a0e565b6118238185611a2a565b9350611833818560208601611b84565b61183c81611d50565b840191505092915050565b600061185282611a0e565b61185c8185611a3b565b935061186c818560208601611b84565b80840191505092915050565b6000611885602183611a2a565b915061189082611d61565b604082019050919050565b6118a481611b6b565b82525050565b60006118b68285611847565b91506118c28284611847565b91508190509392505050565b60006020820190506118e360008301846117b7565b92915050565b60006080820190506118fe60008301876117b7565b61190b60208301866117b7565b611918604083018561189b565b818103606083015261192a81846117d5565b905095945050505050565b600060208201905061194a60008301846117c6565b92915050565b6000602082019050818103600083015261196a818461180e565b905092915050565b6000602082019050818103600083015261198b81611878565b9050919050565b60006020820190506119a7600083018461189b565b92915050565b60006119b76119c8565b90506119c38282611be9565b919050565b6000604051905090565b600067ffffffffffffffff8211156119ed576119ec611d21565b5b6119f682611d50565b9050602081019050919050565b600081519050919050565b600081519050919050565b600082825260208201905092915050565b600082825260208201905092915050565b600081905092915050565b6000611a5182611b6b565b9150611a5c83611b6b565b9250827fffffffffffffffffffffffffffffffffffffffffffffffffffffffffffffffff03821115611a9157611a90611c94565b5b828201905092915050565b6000611aa782611b6b565b9150611ab283611b6b565b925082611ac257611ac1611cc3565b5b828204905092915050565b6000611ad882611b6b565b9150611ae383611b6b565b925082821015611af657611af5611c94565b5b828203905092915050565b6000611b0c82611b4b565b9050919050565b60008115159050919050565b60007fffffffff0000000000000000000000000000000000000000000000000000000082169050919050565b600073ffffffffffffffffffffffffffffffffffffffff82169050919050565b6000819050919050565b82818337600083830152505050565b60005b83811015611ba2578082015181840152602081019050611b87565b83811115611bb1576000848401525b50505050565b60006002820490506001821680611bcf57607f821691505b60208210811415611be357611be2611cf2565b5b50919050565b611bf282611d50565b810181811067ffffffffffffffff82111715611c1157611c10611d21565b5b80604052505050565b6000611c2582611b6b565b91507fffffffffffffffffffffffffffffffffffffffffffffffffffffffffffffffff821415611c5857611c57611c94565b5b600182019050919050565b6000611c6e82611b6b565b9150611c7983611b6b565b925082611c8957611c88611cc3565b5b828206905092915050565b7f4e487b7100000000000000000000000000000000000000000000000000000000600052601160045260246000fd5b7f4e487b7100000000000000000000000000000000000000000000000000000000600052601260045260246000fd5b7f4e487b7100000000000000000000000000000000000000000000000000000000600052602260045260246000fd5b7f4e487b7100000000000000000000000000000000000000000000000000000000600052604160045260246000fd5b6000601f19601f8301169050919050565b7f4552433732313a20617070726f76616c20746f2063757272656e74206f776e6560008201527f7200000000000000000000000000000000000000000000000000000000000000602082015250565b611db981611b01565b8114611dc457600080fd5b50565b611dd081611b13565b8114611ddb57600080fd5b50565b611de781611b1f565b8114611df257600080fd5b50565b611dfe81611b6b565b8114611e0957600080fd5b5056fea26469706673582212208a3a40ab5a6aa614b8d0b78d9d0fd9076d38e5b79fb29e0b7db19def304c4df664736f6c63430008040033",
  "linkReferences": {},
  "deployedLinkReferences": {}
}